{
  "_format": "hh-sol-artifact-1",
  "contractName": "NFTMarketplace",
  "sourceName": "contracts/NFTMarketplace.sol",
  "abi": [
    {
      "inputs": [],
      "stateMutability": "nonpayable",
      "type": "constructor"
    },
    {
      "anonymous": false,
      "inputs": [
        {
          "indexed": true,
          "internalType": "address",
          "name": "owner",
          "type": "address"
        },
        {
          "indexed": true,
          "internalType": "address",
          "name": "approved",
          "type": "address"
        },
        {
          "indexed": true,
          "internalType": "uint256",
          "name": "tokenId",
          "type": "uint256"
        }
      ],
      "name": "Approval",
      "type": "event"
    },
    {
      "anonymous": false,
      "inputs": [
        {
          "indexed": true,
          "internalType": "address",
          "name": "owner",
          "type": "address"
        },
        {
          "indexed": true,
          "internalType": "address",
          "name": "operator",
          "type": "address"
        },
        {
          "indexed": false,
          "internalType": "bool",
          "name": "approved",
          "type": "bool"
        }
      ],
      "name": "ApprovalForAll",
      "type": "event"
    },
    {
      "anonymous": false,
      "inputs": [
        {
          "indexed": true,
          "internalType": "address",
          "name": "previousOwner",
          "type": "address"
        },
        {
          "indexed": true,
          "internalType": "address",
          "name": "newOwner",
          "type": "address"
        }
      ],
      "name": "OwnershipTransferred",
      "type": "event"
    },
    {
      "anonymous": false,
      "inputs": [
        {
          "indexed": true,
          "internalType": "address",
          "name": "from",
          "type": "address"
        },
        {
          "indexed": true,
          "internalType": "address",
          "name": "to",
          "type": "address"
        },
        {
          "indexed": true,
          "internalType": "uint256",
          "name": "tokenId",
          "type": "uint256"
        }
      ],
      "name": "Transfer",
      "type": "event"
    },
    {
      "inputs": [
        {
          "internalType": "address",
          "name": "to",
          "type": "address"
        },
        {
          "internalType": "uint256",
          "name": "tokenId",
          "type": "uint256"
        }
      ],
      "name": "approve",
      "outputs": [],
      "stateMutability": "nonpayable",
      "type": "function"
    },
    {
      "inputs": [
        {
          "internalType": "address",
          "name": "owner",
          "type": "address"
        }
      ],
      "name": "balanceOf",
      "outputs": [
        {
          "internalType": "uint256",
          "name": "",
          "type": "uint256"
        }
      ],
      "stateMutability": "view",
      "type": "function"
    },
    {
      "inputs": [
        {
          "internalType": "uint256",
          "name": "tokenId",
          "type": "uint256"
        }
      ],
      "name": "executeSell",
      "outputs": [],
      "stateMutability": "payable",
      "type": "function"
    },
    {
      "inputs": [],
      "name": "getAllNfts",
      "outputs": [
        {
          "components": [
            {
              "internalType": "uint256",
              "name": "tokenId",
              "type": "uint256"
            },
            {
              "internalType": "address payable",
              "name": "owner",
              "type": "address"
            },
            {
              "internalType": "address payable",
              "name": "seller",
              "type": "address"
            },
            {
              "internalType": "address payable",
              "name": "firstOwner",
              "type": "address"
            },
            {
              "internalType": "uint256",
              "name": "price",
              "type": "uint256"
            },
            {
              "internalType": "uint256",
              "name": "sellCount",
              "type": "uint256"
            }
          ],
          "internalType": "struct NFTMarketplace.ListedItems[]",
          "name": "",
          "type": "tuple[]"
        }
      ],
      "stateMutability": "view",
      "type": "function"
    },
    {
      "inputs": [
        {
          "internalType": "uint256",
          "name": "tokenId",
          "type": "uint256"
        }
      ],
      "name": "getApproved",
      "outputs": [
        {
          "internalType": "address",
          "name": "",
          "type": "address"
        }
      ],
      "stateMutability": "view",
      "type": "function"
    },
    {
      "inputs": [],
      "name": "getMyNfts",
      "outputs": [
        {
          "components": [
            {
              "internalType": "uint256",
              "name": "tokenId",
              "type": "uint256"
            },
            {
              "internalType": "address payable",
              "name": "owner",
              "type": "address"
            },
            {
              "internalType": "address payable",
              "name": "seller",
              "type": "address"
            },
            {
              "internalType": "address payable",
              "name": "firstOwner",
              "type": "address"
            },
            {
              "internalType": "uint256",
              "name": "price",
              "type": "uint256"
            },
            {
              "internalType": "uint256",
              "name": "sellCount",
              "type": "uint256"
            }
          ],
          "internalType": "struct NFTMarketplace.ListedItems[]",
          "name": "",
          "type": "tuple[]"
        }
      ],
      "stateMutability": "view",
      "type": "function"
    },
    {
      "inputs": [
        {
          "internalType": "address",
          "name": "owner",
          "type": "address"
        },
        {
          "internalType": "address",
          "name": "operator",
          "type": "address"
        }
      ],
      "name": "isApprovedForAll",
      "outputs": [
        {
          "internalType": "bool",
          "name": "",
          "type": "bool"
        }
      ],
      "stateMutability": "view",
      "type": "function"
    },
    {
      "inputs": [],
      "name": "lisitingPrice",
      "outputs": [
        {
          "internalType": "uint256",
          "name": "",
          "type": "uint256"
        }
      ],
      "stateMutability": "view",
      "type": "function"
    },
    {
      "inputs": [
        {
          "internalType": "string",
          "name": "_tokenURI",
          "type": "string"
        },
        {
          "internalType": "uint256",
          "name": "_price",
          "type": "uint256"
        }
      ],
      "name": "mintToken",
      "outputs": [
        {
          "internalType": "uint256",
          "name": "",
          "type": "uint256"
        }
      ],
      "stateMutability": "payable",
      "type": "function"
    },
    {
      "inputs": [],
      "name": "name",
      "outputs": [
        {
          "internalType": "string",
          "name": "",
          "type": "string"
        }
      ],
      "stateMutability": "view",
      "type": "function"
    },
    {
      "inputs": [],
      "name": "owner",
      "outputs": [
        {
          "internalType": "address",
          "name": "",
          "type": "address"
        }
      ],
      "stateMutability": "view",
      "type": "function"
    },
    {
      "inputs": [
        {
          "internalType": "uint256",
          "name": "tokenId",
          "type": "uint256"
        }
      ],
      "name": "ownerOf",
      "outputs": [
        {
          "internalType": "address",
          "name": "",
          "type": "address"
        }
      ],
      "stateMutability": "view",
      "type": "function"
    },
    {
      "inputs": [],
      "name": "renounceOwnership",
      "outputs": [],
      "stateMutability": "nonpayable",
      "type": "function"
    },
    {
      "inputs": [
        {
          "internalType": "address",
          "name": "from",
          "type": "address"
        },
        {
          "internalType": "address",
          "name": "to",
          "type": "address"
        },
        {
          "internalType": "uint256",
          "name": "tokenId",
          "type": "uint256"
        }
      ],
      "name": "safeTransferFrom",
      "outputs": [],
      "stateMutability": "nonpayable",
      "type": "function"
    },
    {
      "inputs": [
        {
          "internalType": "address",
          "name": "from",
          "type": "address"
        },
        {
          "internalType": "address",
          "name": "to",
          "type": "address"
        },
        {
          "internalType": "uint256",
          "name": "tokenId",
          "type": "uint256"
        },
        {
          "internalType": "bytes",
          "name": "data",
          "type": "bytes"
        }
      ],
      "name": "safeTransferFrom",
      "outputs": [],
      "stateMutability": "nonpayable",
      "type": "function"
    },
    {
      "inputs": [
        {
          "internalType": "address",
          "name": "operator",
          "type": "address"
        },
        {
          "internalType": "bool",
          "name": "approved",
          "type": "bool"
        }
      ],
      "name": "setApprovalForAll",
      "outputs": [],
      "stateMutability": "nonpayable",
      "type": "function"
    },
    {
      "inputs": [
        {
          "internalType": "bytes4",
          "name": "interfaceId",
          "type": "bytes4"
        }
      ],
      "name": "supportsInterface",
      "outputs": [
        {
          "internalType": "bool",
          "name": "",
          "type": "bool"
        }
      ],
      "stateMutability": "view",
      "type": "function"
    },
    {
      "inputs": [],
      "name": "symbol",
      "outputs": [
        {
          "internalType": "string",
          "name": "",
          "type": "string"
        }
      ],
      "stateMutability": "view",
      "type": "function"
    },
    {
      "inputs": [
        {
          "internalType": "uint256",
          "name": "tokenId",
          "type": "uint256"
        }
      ],
      "name": "tokenURI",
      "outputs": [
        {
          "internalType": "string",
          "name": "",
          "type": "string"
        }
      ],
      "stateMutability": "view",
      "type": "function"
    },
    {
      "inputs": [
        {
          "internalType": "address",
          "name": "from",
          "type": "address"
        },
        {
          "internalType": "address",
          "name": "to",
          "type": "address"
        },
        {
          "internalType": "uint256",
          "name": "tokenId",
          "type": "uint256"
        }
      ],
      "name": "transferFrom",
      "outputs": [],
      "stateMutability": "nonpayable",
      "type": "function"
    },
    {
      "inputs": [
        {
          "internalType": "address",
          "name": "newOwner",
          "type": "address"
        }
      ],
      "name": "transferOwnership",
      "outputs": [],
      "stateMutability": "nonpayable",
      "type": "function"
    }
  ],
  "bytecode": "0x6080604052662386f26fc100006009553480156200001c57600080fd5b506040518060400160405280600a81526020017f4150504156454e474552000000000000000000000000000000000000000000008152506040518060400160405280600281526020017f41410000000000000000000000000000000000000000000000000000000000008152508160009080519060200190620000a1929190620001f2565b508060019080519060200190620000ba929190620001f2565b505050620000dd620000d16200012460201b60201c565b6200012c60201b60201c565b33600860006101000a81548173ffffffffffffffffffffffffffffffffffffffff021916908373ffffffffffffffffffffffffffffffffffffffff16021790555062000307565b600033905090565b6000600760009054906101000a900473ffffffffffffffffffffffffffffffffffffffff16905081600760006101000a81548173ffffffffffffffffffffffffffffffffffffffff021916908373ffffffffffffffffffffffffffffffffffffffff1602179055508173ffffffffffffffffffffffffffffffffffffffff168173ffffffffffffffffffffffffffffffffffffffff167f8be0079c531659141344cd1fd0a4f28419497f9722a3daafe3b4186f6b6457e060405160405180910390a35050565b8280546200020090620002d1565b90600052602060002090601f01602090048101928262000224576000855562000270565b82601f106200023f57805160ff191683800117855562000270565b8280016001018555821562000270579182015b828111156200026f57825182559160200191906001019062000252565b5b5090506200027f919062000283565b5090565b5b808211156200029e57600081600090555060010162000284565b5090565b7f4e487b7100000000000000000000000000000000000000000000000000000000600052602260045260246000fd5b60006002820490506001821680620002ea57607f821691505b60208210811415620003015762000300620002a2565b5b50919050565b613c4d80620003176000396000f3fe60806040526004361061012a5760003560e01c8063732e8d73116100ab578063b88d4fde1161006f578063b88d4fde146103d1578063c046372c146103fa578063c87b56dd1461042a578063e985e9c514610467578063f026f8b6146104a4578063f2fde38b146104cf5761012a565b8063732e8d731461030b57806385eaaebb146103365780638da5cb5b1461035257806395d89b411461037d578063a22cb465146103a85761012a565b806323b872dd116100f257806323b872dd1461022857806342842e0e146102515780636352211e1461027a57806370a08231146102b7578063715018a6146102f45761012a565b806301ffc9a71461012f578063047b07bf1461016c57806306fdde0314610197578063081812fc146101c2578063095ea7b3146101ff575b600080fd5b34801561013b57600080fd5b506101566004803603810190610151919061284b565b6104f8565b6040516101639190612893565b60405180910390f35b34801561017857600080fd5b506101816105da565b60405161018e9190612a32565b60405180910390f35b3480156101a357600080fd5b506101ac6109fd565b6040516101b99190612aed565b60405180910390f35b3480156101ce57600080fd5b506101e960048036038101906101e49190612b3b565b610a8f565b6040516101f69190612b89565b60405180910390f35b34801561020b57600080fd5b5061022660048036038101906102219190612bd0565b610ad5565b005b34801561023457600080fd5b5061024f600480360381019061024a9190612c10565b610bed565b005b34801561025d57600080fd5b5061027860048036038101906102739190612c10565b610c4d565b005b34801561028657600080fd5b506102a1600480360381019061029c9190612b3b565b610c6d565b6040516102ae9190612b89565b60405180910390f35b3480156102c357600080fd5b506102de60048036038101906102d99190612c63565b610d1f565b6040516102eb9190612c9f565b60405180910390f35b34801561030057600080fd5b50610309610dd7565b005b34801561031757600080fd5b50610320610deb565b60405161032d9190612a32565b60405180910390f35b610350600480360381019061034b9190612b3b565b610fff565b005b34801561035e57600080fd5b506103676112d7565b6040516103749190612b89565b60405180910390f35b34801561038957600080fd5b50610392611301565b60405161039f9190612aed565b60405180910390f35b3480156103b457600080fd5b506103cf60048036038101906103ca9190612ce6565b611393565b005b3480156103dd57600080fd5b506103f860048036038101906103f39190612e5b565b6113a9565b005b610414600480360381019061040f9190612f7f565b61140b565b6040516104219190612c9f565b60405180910390f35b34801561043657600080fd5b50610451600480360381019061044c9190612b3b565b611491565b60405161045e9190612aed565b60405180910390f35b34801561047357600080fd5b5061048e60048036038101906104899190612fdb565b6115a4565b60405161049b9190612893565b60405180910390f35b3480156104b057600080fd5b506104b9611638565b6040516104c69190612c9f565b60405180910390f35b3480156104db57600080fd5b506104f660048036038101906104f19190612c63565b61163e565b005b60007f80ac58cd000000000000000000000000000000000000000000000000000000007bffffffffffffffffffffffffffffffffffffffffffffffffffffffff1916827bffffffffffffffffffffffffffffffffffffffffffffffffffffffff191614806105c357507f5b5e139f000000000000000000000000000000000000000000000000000000007bffffffffffffffffffffffffffffffffffffffffffffffffffffffff1916827bffffffffffffffffffffffffffffffffffffffffffffffffffffffff1916145b806105d357506105d2826116c2565b5b9050919050565b606060006105e8600a61172c565b905060008060005b83811015610709573373ffffffffffffffffffffffffffffffffffffffff16600b6000600184610620919061304a565b815260200190815260200160002060010160009054906101000a900473ffffffffffffffffffffffffffffffffffffffff1673ffffffffffffffffffffffffffffffffffffffff1614806106e157503373ffffffffffffffffffffffffffffffffffffffff16600b6000600184610697919061304a565b815260200190815260200160002060020160009054906101000a900473ffffffffffffffffffffffffffffffffffffffff1673ffffffffffffffffffffffffffffffffffffffff16145b156106f6576001816106f3919061304a565b92505b8080610701906130a0565b9150506105f0565b5060008267ffffffffffffffff81111561072657610725612d30565b5b60405190808252806020026020018201604052801561075f57816020015b61074c6126c4565b8152602001906001900390816107445790505b50905060005b838110156109f2573373ffffffffffffffffffffffffffffffffffffffff16600b6000600184610795919061304a565b815260200190815260200160002060010160009054906101000a900473ffffffffffffffffffffffffffffffffffffffff1673ffffffffffffffffffffffffffffffffffffffff16148061085657503373ffffffffffffffffffffffffffffffffffffffff16600b600060018461080c919061304a565b815260200190815260200160002060020160009054906101000a900473ffffffffffffffffffffffffffffffffffffffff1673ffffffffffffffffffffffffffffffffffffffff16145b156109df57600060018261086a919061304a565b90506000600b60008381526020019081526020016000209050806040518060c0016040529081600082015481526020016001820160009054906101000a900473ffffffffffffffffffffffffffffffffffffffff1673ffffffffffffffffffffffffffffffffffffffff1673ffffffffffffffffffffffffffffffffffffffff1681526020016002820160009054906101000a900473ffffffffffffffffffffffffffffffffffffffff1673ffffffffffffffffffffffffffffffffffffffff1673ffffffffffffffffffffffffffffffffffffffff1681526020016003820160009054906101000a900473ffffffffffffffffffffffffffffffffffffffff1673ffffffffffffffffffffffffffffffffffffffff1673ffffffffffffffffffffffffffffffffffffffff168152602001600482015481526020016005820154815250508486815181106109c2576109c16130e9565b5b60200260200101819052506001856109da919061304a565b945050505b80806109ea906130a0565b915050610765565b508094505050505090565b606060008054610a0c90613147565b80601f0160208091040260200160405190810160405280929190818152602001828054610a3890613147565b8015610a855780601f10610a5a57610100808354040283529160200191610a85565b820191906000526020600020905b815481529060010190602001808311610a6857829003601f168201915b5050505050905090565b6000610a9a8261173a565b6004600083815260200190815260200160002060009054906101000a900473ffffffffffffffffffffffffffffffffffffffff169050919050565b6000610ae082610c6d565b90508073ffffffffffffffffffffffffffffffffffffffff168373ffffffffffffffffffffffffffffffffffffffff161415610b51576040517f08c379a0000000000000000000000000000000000000000000000000000000008152600401610b48906131eb565b60405180910390fd5b8073ffffffffffffffffffffffffffffffffffffffff16610b70611785565b73ffffffffffffffffffffffffffffffffffffffff161480610b9f5750610b9e81610b99611785565b6115a4565b5b610bde576040517f08c379a0000000000000000000000000000000000000000000000000000000008152600401610bd59061327d565b60405180910390fd5b610be8838361178d565b505050565b610bfe610bf8611785565b82611846565b610c3d576040517f08c379a0000000000000000000000000000000000000000000000000000000008152600401610c349061330f565b60405180910390fd5b610c488383836118db565b505050565b610c68838383604051806020016040528060008152506113a9565b505050565b6000806002600084815260200190815260200160002060009054906101000a900473ffffffffffffffffffffffffffffffffffffffff169050600073ffffffffffffffffffffffffffffffffffffffff168173ffffffffffffffffffffffffffffffffffffffff161415610d16576040517f08c379a0000000000000000000000000000000000000000000000000000000008152600401610d0d9061337b565b60405180910390fd5b80915050919050565b60008073ffffffffffffffffffffffffffffffffffffffff168273ffffffffffffffffffffffffffffffffffffffff161415610d90576040517f08c379a0000000000000000000000000000000000000000000000000000000008152600401610d879061340d565b60405180910390fd5b600360008373ffffffffffffffffffffffffffffffffffffffff1673ffffffffffffffffffffffffffffffffffffffff168152602001908152602001600020549050919050565b610ddf611b42565b610de96000611bc0565b565b60606000610df9600a61172c565b905060008167ffffffffffffffff811115610e1757610e16612d30565b5b604051908082528060200260200182016040528015610e5057816020015b610e3d6126c4565b815260200190600190039081610e355790505b5090506000805b83811015610ff5576000600182610e6e919061304a565b90506000600b60008381526020019081526020016000209050806040518060c0016040529081600082015481526020016001820160009054906101000a900473ffffffffffffffffffffffffffffffffffffffff1673ffffffffffffffffffffffffffffffffffffffff1673ffffffffffffffffffffffffffffffffffffffff1681526020016002820160009054906101000a900473ffffffffffffffffffffffffffffffffffffffff1673ffffffffffffffffffffffffffffffffffffffff1673ffffffffffffffffffffffffffffffffffffffff1681526020016003820160009054906101000a900473ffffffffffffffffffffffffffffffffffffffff1673ffffffffffffffffffffffffffffffffffffffff1673ffffffffffffffffffffffffffffffffffffffff16815260200160048201548152602001600582015481525050858581518110610fc657610fc56130e9565b5b6020026020010181905250600184610fde919061304a565b935050508080610fed906130a0565b915050610e57565b5081935050505090565b6000600b60008381526020019081526020016000206004015490506000606460198361102b919061342d565b61103591906134b6565b90506000600b600085815260200190815260200160002060020160009054906101000a900473ffffffffffffffffffffffffffffffffffffffff1690506000600b600086815260200190815260200160002060030160009054906101000a900473ffffffffffffffffffffffffffffffffffffffff1690506000600954856110bd919061304a565b9050348114611101576040517f08c379a00000000000000000000000000000000000000000000000000000000081526004016110f890613533565b60405180910390fd5b838561110d9190613553565b945033600b600088815260200190815260200160002060020160006101000a81548173ffffffffffffffffffffffffffffffffffffffff021916908373ffffffffffffffffffffffffffffffffffffffff160217905550600860009054906101000a900473ffffffffffffffffffffffffffffffffffffffff1673ffffffffffffffffffffffffffffffffffffffff166108fc6009549081150290604051600060405180830381858888f193505050501580156111ce573d6000803e3d6000fd5b508273ffffffffffffffffffffffffffffffffffffffff166108fc869081150290604051600060405180830381858888f19350505050158015611215573d6000803e3d6000fd5b508173ffffffffffffffffffffffffffffffffffffffff166108fc859081150290604051600060405180830381858888f1935050505015801561125c573d6000803e3d6000fd5b506000600b6000888152602001908152602001600020600501541461128b576112868333886118db565b611297565b6112963033886118db565b5b6112a13087610ad5565b6001600b600088815260200190815260200160002060050160008282546112c8919061304a565b92505081905550505050505050565b6000600760009054906101000a900473ffffffffffffffffffffffffffffffffffffffff16905090565b60606001805461131090613147565b80601f016020809104026020016040519081016040528092919081815260200182805461133c90613147565b80156113895780601f1061135e57610100808354040283529160200191611389565b820191906000526020600020905b81548152906001019060200180831161136c57829003601f168201915b5050505050905090565b6113a561139e611785565b8383611c86565b5050565b6113ba6113b4611785565b83611846565b6113f9576040517f08c379a00000000000000000000000000000000000000000000000000000000081526004016113f09061330f565b60405180910390fd5b61140584848484611df3565b50505050565b60006009543414611451576040517f08c379a0000000000000000000000000000000000000000000000000000000008152600401611448906135f9565b60405180910390fd5b61145b600a611e4f565b6000611467600a61172c565b90506114733382611e65565b61147d8185611e83565b6114878184611ef7565b8091505092915050565b606061149c8261173a565b60006006600084815260200190815260200160002080546114bc90613147565b80601f01602080910402602001604051908101604052809291908181526020018280546114e890613147565b80156115355780601f1061150a57610100808354040283529160200191611535565b820191906000526020600020905b81548152906001019060200180831161151857829003601f168201915b50505050509050600061154661207f565b905060008151141561155c57819250505061159f565b600082511115611591578082604051602001611579929190613655565b6040516020818303038152906040529250505061159f565b61159a84612096565b925050505b919050565b6000600560008473ffffffffffffffffffffffffffffffffffffffff1673ffffffffffffffffffffffffffffffffffffffff16815260200190815260200160002060008373ffffffffffffffffffffffffffffffffffffffff1673ffffffffffffffffffffffffffffffffffffffff16815260200190815260200160002060009054906101000a900460ff16905092915050565b60095481565b611646611b42565b600073ffffffffffffffffffffffffffffffffffffffff168173ffffffffffffffffffffffffffffffffffffffff1614156116b6576040517f08c379a00000000000000000000000000000000000000000000000000000000081526004016116ad906136eb565b60405180910390fd5b6116bf81611bc0565b50565b60007f01ffc9a7000000000000000000000000000000000000000000000000000000007bffffffffffffffffffffffffffffffffffffffffffffffffffffffff1916827bffffffffffffffffffffffffffffffffffffffffffffffffffffffff1916149050919050565b600081600001549050919050565b611743816120fe565b611782576040517f08c379a00000000000000000000000000000000000000000000000000000000081526004016117799061337b565b60405180910390fd5b50565b600033905090565b816004600083815260200190815260200160002060006101000a81548173ffffffffffffffffffffffffffffffffffffffff021916908373ffffffffffffffffffffffffffffffffffffffff160217905550808273ffffffffffffffffffffffffffffffffffffffff1661180083610c6d565b73ffffffffffffffffffffffffffffffffffffffff167f8c5be1e5ebec7d5bd14f71427d1e84f3dd0314c0f7b2291e5b200ac8c7c3b92560405160405180910390a45050565b60008061185283610c6d565b90508073ffffffffffffffffffffffffffffffffffffffff168473ffffffffffffffffffffffffffffffffffffffff161480611894575061189381856115a4565b5b806118d257508373ffffffffffffffffffffffffffffffffffffffff166118ba84610a8f565b73ffffffffffffffffffffffffffffffffffffffff16145b91505092915050565b8273ffffffffffffffffffffffffffffffffffffffff166118fb82610c6d565b73ffffffffffffffffffffffffffffffffffffffff1614611951576040517f08c379a00000000000000000000000000000000000000000000000000000000081526004016119489061377d565b60405180910390fd5b600073ffffffffffffffffffffffffffffffffffffffff168273ffffffffffffffffffffffffffffffffffffffff1614156119c1576040517f08c379a00000000000000000000000000000000000000000000000000000000081526004016119b89061380f565b60405180910390fd5b6119cc83838361216a565b6119d760008261178d565b6001600360008573ffffffffffffffffffffffffffffffffffffffff1673ffffffffffffffffffffffffffffffffffffffff1681526020019081526020016000206000828254611a279190613553565b925050819055506001600360008473ffffffffffffffffffffffffffffffffffffffff1673ffffffffffffffffffffffffffffffffffffffff1681526020019081526020016000206000828254611a7e919061304a565b92505081905550816002600083815260200190815260200160002060006101000a81548173ffffffffffffffffffffffffffffffffffffffff021916908373ffffffffffffffffffffffffffffffffffffffff160217905550808273ffffffffffffffffffffffffffffffffffffffff168473ffffffffffffffffffffffffffffffffffffffff167fddf252ad1be2c89b69c2b068fc378daa952ba7f163c4a11628f55a4df523b3ef60405160405180910390a4611b3d83838361216f565b505050565b611b4a611785565b73ffffffffffffffffffffffffffffffffffffffff16611b686112d7565b73ffffffffffffffffffffffffffffffffffffffff1614611bbe576040517f08c379a0000000000000000000000000000000000000000000000000000000008152600401611bb59061387b565b60405180910390fd5b565b6000600760009054906101000a900473ffffffffffffffffffffffffffffffffffffffff16905081600760006101000a81548173ffffffffffffffffffffffffffffffffffffffff021916908373ffffffffffffffffffffffffffffffffffffffff1602179055508173ffffffffffffffffffffffffffffffffffffffff168173ffffffffffffffffffffffffffffffffffffffff167f8be0079c531659141344cd1fd0a4f28419497f9722a3daafe3b4186f6b6457e060405160405180910390a35050565b8173ffffffffffffffffffffffffffffffffffffffff168373ffffffffffffffffffffffffffffffffffffffff161415611cf5576040517f08c379a0000000000000000000000000000000000000000000000000000000008152600401611cec906138e7565b60405180910390fd5b80600560008573ffffffffffffffffffffffffffffffffffffffff1673ffffffffffffffffffffffffffffffffffffffff16815260200190815260200160002060008473ffffffffffffffffffffffffffffffffffffffff1673ffffffffffffffffffffffffffffffffffffffff16815260200190815260200160002060006101000a81548160ff0219169083151502179055508173ffffffffffffffffffffffffffffffffffffffff168373ffffffffffffffffffffffffffffffffffffffff167f17307eab39ab6107e8899845ad3d59bd9653f200f220920489ca2b5937696c3183604051611de69190612893565b60405180910390a3505050565b611dfe8484846118db565b611e0a84848484612174565b611e49576040517f08c379a0000000000000000000000000000000000000000000000000000000008152600401611e4090613979565b60405180910390fd5b50505050565b6001816000016000828254019250508190555050565b611e7f82826040518060200160405280600081525061230b565b5050565b611e8c826120fe565b611ecb576040517f08c379a0000000000000000000000000000000000000000000000000000000008152600401611ec290613a0b565b60405180910390fd5b80600660008481526020019081526020016000209080519060200190611ef292919061273c565b505050565b6040518060c001604052808381526020013073ffffffffffffffffffffffffffffffffffffffff1681526020013373ffffffffffffffffffffffffffffffffffffffff1681526020013373ffffffffffffffffffffffffffffffffffffffff1681526020018281526020016000815250600b60008481526020019081526020016000206000820151816000015560208201518160010160006101000a81548173ffffffffffffffffffffffffffffffffffffffff021916908373ffffffffffffffffffffffffffffffffffffffff16021790555060408201518160020160006101000a81548173ffffffffffffffffffffffffffffffffffffffff021916908373ffffffffffffffffffffffffffffffffffffffff16021790555060608201518160030160006101000a81548173ffffffffffffffffffffffffffffffffffffffff021916908373ffffffffffffffffffffffffffffffffffffffff1602179055506080820151816004015560a0820151816005015590505061207b3330846118db565b5050565b606060405180602001604052806000815250905090565b60606120a18261173a565b60006120ab61207f565b905060008151116120cb57604051806020016040528060008152506120f6565b806120d584612366565b6040516020016120e6929190613655565b6040516020818303038152906040525b915050919050565b60008073ffffffffffffffffffffffffffffffffffffffff166002600084815260200190815260200160002060009054906101000a900473ffffffffffffffffffffffffffffffffffffffff1673ffffffffffffffffffffffffffffffffffffffff1614159050919050565b505050565b505050565b60006121958473ffffffffffffffffffffffffffffffffffffffff166124c7565b156122fe578373ffffffffffffffffffffffffffffffffffffffff1663150b7a026121be611785565b8786866040518563ffffffff1660e01b81526004016121e09493929190613a80565b602060405180830381600087803b1580156121fa57600080fd5b505af192505050801561222b57506040513d601f19601f820116820180604052508101906122289190613ae1565b60015b6122ae573d806000811461225b576040519150601f19603f3d011682016040523d82523d6000602084013e612260565b606091505b506000815114156122a6576040517f08c379a000000000000000000000000000000000000000000000000000000000815260040161229d90613979565b60405180910390fd5b805181602001fd5b63150b7a0260e01b7bffffffffffffffffffffffffffffffffffffffffffffffffffffffff1916817bffffffffffffffffffffffffffffffffffffffffffffffffffffffff191614915050612303565b600190505b949350505050565b61231583836124ea565b6123226000848484612174565b612361576040517f08c379a000000000000000000000000000000000000000000000000000000000815260040161235890613979565b60405180910390fd5b505050565b606060008214156123ae576040518060400160405280600181526020017f300000000000000000000000000000000000000000000000000000000000000081525090506124c2565b600082905060005b600082146123e05780806123c9906130a0565b915050600a826123d991906134b6565b91506123b6565b60008167ffffffffffffffff8111156123fc576123fb612d30565b5b6040519080825280601f01601f19166020018201604052801561242e5781602001600182028036833780820191505090505b5090505b600085146124bb576001826124479190613553565b9150600a856124569190613b0e565b6030612462919061304a565b60f81b818381518110612478576124776130e9565b5b60200101907effffffffffffffffffffffffffffffffffffffffffffffffffffffffffffff1916908160001a905350600a856124b491906134b6565b9450612432565b8093505050505b919050565b6000808273ffffffffffffffffffffffffffffffffffffffff163b119050919050565b600073ffffffffffffffffffffffffffffffffffffffff168273ffffffffffffffffffffffffffffffffffffffff16141561255a576040517f08c379a000000000000000000000000000000000000000000000000000000000815260040161255190613b8b565b60405180910390fd5b612563816120fe565b156125a3576040517f08c379a000000000000000000000000000000000000000000000000000000000815260040161259a90613bf7565b60405180910390fd5b6125af6000838361216a565b6001600360008473ffffffffffffffffffffffffffffffffffffffff1673ffffffffffffffffffffffffffffffffffffffff16815260200190815260200160002060008282546125ff919061304a565b92505081905550816002600083815260200190815260200160002060006101000a81548173ffffffffffffffffffffffffffffffffffffffff021916908373ffffffffffffffffffffffffffffffffffffffff160217905550808273ffffffffffffffffffffffffffffffffffffffff16600073ffffffffffffffffffffffffffffffffffffffff167fddf252ad1be2c89b69c2b068fc378daa952ba7f163c4a11628f55a4df523b3ef60405160405180910390a46126c06000838361216f565b5050565b6040518060c0016040528060008152602001600073ffffffffffffffffffffffffffffffffffffffff168152602001600073ffffffffffffffffffffffffffffffffffffffff168152602001600073ffffffffffffffffffffffffffffffffffffffff16815260200160008152602001600081525090565b82805461274890613147565b90600052602060002090601f01602090048101928261276a57600085556127b1565b82601f1061278357805160ff19168380011785556127b1565b828001600101855582156127b1579182015b828111156127b0578251825591602001919060010190612795565b5b5090506127be91906127c2565b5090565b5b808211156127db5760008160009055506001016127c3565b5090565b6000604051905090565b600080fd5b600080fd5b60007fffffffff0000000000000000000000000000000000000000000000000000000082169050919050565b612828816127f3565b811461283357600080fd5b50565b6000813590506128458161281f565b92915050565b600060208284031215612861576128606127e9565b5b600061286f84828501612836565b91505092915050565b60008115159050919050565b61288d81612878565b82525050565b60006020820190506128a86000830184612884565b92915050565b600081519050919050565b600082825260208201905092915050565b6000819050602082019050919050565b6000819050919050565b6128ed816128da565b82525050565b600073ffffffffffffffffffffffffffffffffffffffff82169050919050565b600061291e826128f3565b9050919050565b61292e81612913565b82525050565b60c08201600082015161294a60008501826128e4565b50602082015161295d6020850182612925565b5060408201516129706040850182612925565b5060608201516129836060850182612925565b50608082015161299660808501826128e4565b5060a08201516129a960a08501826128e4565b50505050565b60006129bb8383612934565b60c08301905092915050565b6000602082019050919050565b60006129df826128ae565b6129e981856128b9565b93506129f4836128ca565b8060005b83811015612a25578151612a0c88826129af565b9750612a17836129c7565b9250506001810190506129f8565b5085935050505092915050565b60006020820190508181036000830152612a4c81846129d4565b905092915050565b600081519050919050565b600082825260208201905092915050565b60005b83811015612a8e578082015181840152602081019050612a73565b83811115612a9d576000848401525b50505050565b6000601f19601f8301169050919050565b6000612abf82612a54565b612ac98185612a5f565b9350612ad9818560208601612a70565b612ae281612aa3565b840191505092915050565b60006020820190508181036000830152612b078184612ab4565b905092915050565b612b18816128da565b8114612b2357600080fd5b50565b600081359050612b3581612b0f565b92915050565b600060208284031215612b5157612b506127e9565b5b6000612b5f84828501612b26565b91505092915050565b6000612b73826128f3565b9050919050565b612b8381612b68565b82525050565b6000602082019050612b9e6000830184612b7a565b92915050565b612bad81612b68565b8114612bb857600080fd5b50565b600081359050612bca81612ba4565b92915050565b60008060408385031215612be757612be66127e9565b5b6000612bf585828601612bbb565b9250506020612c0685828601612b26565b9150509250929050565b600080600060608486031215612c2957612c286127e9565b5b6000612c3786828701612bbb565b9350506020612c4886828701612bbb565b9250506040612c5986828701612b26565b9150509250925092565b600060208284031215612c7957612c786127e9565b5b6000612c8784828501612bbb565b91505092915050565b612c99816128da565b82525050565b6000602082019050612cb46000830184612c90565b92915050565b612cc381612878565b8114612cce57600080fd5b50565b600081359050612ce081612cba565b92915050565b60008060408385031215612cfd57612cfc6127e9565b5b6000612d0b85828601612bbb565b9250506020612d1c85828601612cd1565b9150509250929050565b600080fd5b600080fd5b7f4e487b7100000000000000000000000000000000000000000000000000000000600052604160045260246000fd5b612d6882612aa3565b810181811067ffffffffffffffff82111715612d8757612d86612d30565b5b80604052505050565b6000612d9a6127df565b9050612da68282612d5f565b919050565b600067ffffffffffffffff821115612dc657612dc5612d30565b5b612dcf82612aa3565b9050602081019050919050565b82818337600083830152505050565b6000612dfe612df984612dab565b612d90565b905082815260208101848484011115612e1a57612e19612d2b565b5b612e25848285612ddc565b509392505050565b600082601f830112612e4257612e41612d26565b5b8135612e52848260208601612deb565b91505092915050565b60008060008060808587031215612e7557612e746127e9565b5b6000612e8387828801612bbb565b9450506020612e9487828801612bbb565b9350506040612ea587828801612b26565b925050606085013567ffffffffffffffff811115612ec657612ec56127ee565b5b612ed287828801612e2d565b91505092959194509250565b600067ffffffffffffffff821115612ef957612ef8612d30565b5b612f0282612aa3565b9050602081019050919050565b6000612f22612f1d84612ede565b612d90565b905082815260208101848484011115612f3e57612f3d612d2b565b5b612f49848285612ddc565b509392505050565b600082601f830112612f6657612f65612d26565b5b8135612f76848260208601612f0f565b91505092915050565b60008060408385031215612f9657612f956127e9565b5b600083013567ffffffffffffffff811115612fb457612fb36127ee565b5b612fc085828601612f51565b9250506020612fd185828601612b26565b9150509250929050565b60008060408385031215612ff257612ff16127e9565b5b600061300085828601612bbb565b925050602061301185828601612bbb565b9150509250929050565b7f4e487b7100000000000000000000000000000000000000000000000000000000600052601160045260246000fd5b6000613055826128da565b9150613060836128da565b9250827fffffffffffffffffffffffffffffffffffffffffffffffffffffffffffffffff038211156130955761309461301b565b5b828201905092915050565b60006130ab826128da565b91507fffffffffffffffffffffffffffffffffffffffffffffffffffffffffffffffff8214156130de576130dd61301b565b5b600182019050919050565b7f4e487b7100000000000000000000000000000000000000000000000000000000600052603260045260246000fd5b7f4e487b7100000000000000000000000000000000000000000000000000000000600052602260045260246000fd5b6000600282049050600182168061315f57607f821691505b6020821081141561317357613172613118565b5b50919050565b7f4552433732313a20617070726f76616c20746f2063757272656e74206f776e6560008201527f7200000000000000000000000000000000000000000000000000000000000000602082015250565b60006131d5602183612a5f565b91506131e082613179565b604082019050919050565b60006020820190508181036000830152613204816131c8565b9050919050565b7f4552433732313a20617070726f76652063616c6c6572206973206e6f7420746f60008201527f6b656e206f776e6572206e6f7220617070726f76656420666f7220616c6c0000602082015250565b6000613267603e83612a5f565b91506132728261320b565b604082019050919050565b600060208201905081810360008301526132968161325a565b9050919050565b7f4552433732313a2063616c6c6572206973206e6f7420746f6b656e206f776e6560008201527f72206e6f7220617070726f766564000000000000000000000000000000000000602082015250565b60006132f9602e83612a5f565b91506133048261329d565b604082019050919050565b60006020820190508181036000830152613328816132ec565b9050919050565b7f4552433732313a20696e76616c696420746f6b656e2049440000000000000000600082015250565b6000613365601883612a5f565b91506133708261332f565b602082019050919050565b6000602082019050818103600083015261339481613358565b9050919050565b7f4552433732313a2061646472657373207a65726f206973206e6f74206120766160008201527f6c6964206f776e65720000000000000000000000000000000000000000000000602082015250565b60006133f7602983612a5f565b91506134028261339b565b604082019050919050565b60006020820190508181036000830152613426816133ea565b9050919050565b6000613438826128da565b9150613443836128da565b9250817fffffffffffffffffffffffffffffffffffffffffffffffffffffffffffffffff048311821515161561347c5761347b61301b565b5b828202905092915050565b7f4e487b7100000000000000000000000000000000000000000000000000000000600052601260045260246000fd5b60006134c1826128da565b91506134cc836128da565b9250826134dc576134db613487565b5b828204905092915050565b7f4e6f7420656e6f75676820457468657220746f20627579204e46540000000000600082015250565b600061351d601b83612a5f565b9150613528826134e7565b602082019050919050565b6000602082019050818103600083015261354c81613510565b9050919050565b600061355e826128da565b9150613569836128da565b92508282101561357c5761357b61301b565b5b828203905092915050565b7f4e6f7420656e6f75676820457468657220746f206d696e742074686520746f6b60008201527f656e000000000000000000000000000000000000000000000000000000000000602082015250565b60006135e3602283612a5f565b91506135ee82613587565b604082019050919050565b60006020820190508181036000830152613612816135d6565b9050919050565b600081905092915050565b600061362f82612a54565b6136398185613619565b9350613649818560208601612a70565b80840191505092915050565b60006136618285613624565b915061366d8284613624565b91508190509392505050565b7f4f776e61626c653a206e6577206f776e657220697320746865207a65726f206160008201527f6464726573730000000000000000000000000000000000000000000000000000602082015250565b60006136d5602683612a5f565b91506136e082613679565b604082019050919050565b60006020820190508181036000830152613704816136c8565b9050919050565b7f4552433732313a207472616e736665722066726f6d20696e636f72726563742060008201527f6f776e6572000000000000000000000000000000000000000000000000000000602082015250565b6000613767602583612a5f565b91506137728261370b565b604082019050919050565b600060208201905081810360008301526137968161375a565b9050919050565b7f4552433732313a207472616e7366657220746f20746865207a65726f2061646460008201527f7265737300000000000000000000000000000000000000000000000000000000602082015250565b60006137f9602483612a5f565b91506138048261379d565b604082019050919050565b60006020820190508181036000830152613828816137ec565b9050919050565b7f4f776e61626c653a2063616c6c6572206973206e6f7420746865206f776e6572600082015250565b6000613865602083612a5f565b91506138708261382f565b602082019050919050565b6000602082019050818103600083015261389481613858565b9050919050565b7f4552433732313a20617070726f766520746f2063616c6c657200000000000000600082015250565b60006138d1601983612a5f565b91506138dc8261389b565b602082019050919050565b60006020820190508181036000830152613900816138c4565b9050919050565b7f4552433732313a207472616e7366657220746f206e6f6e20455243373231526560008201527f63656976657220696d706c656d656e7465720000000000000000000000000000602082015250565b6000613963603283612a5f565b915061396e82613907565b604082019050919050565b6000602082019050818103600083015261399281613956565b9050919050565b7f45524337323155524953746f726167653a2055524920736574206f66206e6f6e60008201527f6578697374656e7420746f6b656e000000000000000000000000000000000000602082015250565b60006139f5602e83612a5f565b9150613a0082613999565b604082019050919050565b60006020820190508181036000830152613a24816139e8565b9050919050565b600081519050919050565b600082825260208201905092915050565b6000613a5282613a2b565b613a5c8185613a36565b9350613a6c818560208601612a70565b613a7581612aa3565b840191505092915050565b6000608082019050613a956000830187612b7a565b613aa26020830186612b7a565b613aaf6040830185612c90565b8181036060830152613ac18184613a47565b905095945050505050565b600081519050613adb8161281f565b92915050565b600060208284031215613af757613af66127e9565b5b6000613b0584828501613acc565b91505092915050565b6000613b19826128da565b9150613b24836128da565b925082613b3457613b33613487565b5b828206905092915050565b7f4552433732313a206d696e7420746f20746865207a65726f2061646472657373600082015250565b6000613b75602083612a5f565b9150613b8082613b3f565b602082019050919050565b60006020820190508181036000830152613ba481613b68565b9050919050565b7f4552433732313a20746f6b656e20616c7265616479206d696e74656400000000600082015250565b6000613be1601c83612a5f565b9150613bec82613bab565b602082019050919050565b60006020820190508181036000830152613c1081613bd4565b905091905056fea264697066735822122081f9a97612f4e2fc5b67cc7ede3611a0875c562ad0629c332c82cb7b46252e8d64736f6c63430008090033",
  "linkReferences": {},
  "deployedLinkReferences": {}
}